{
  "contractName": "Auction",
  "abi": [
    {
      "constant": true,
      "inputs": [],
      "name": "beneficiary",
      "outputs": [
        {
          "name": "",
          "type": "address"
        }
      ],
      "payable": false,
      "stateMutability": "view",
      "type": "function"
    },
    {
      "constant": true,
      "inputs": [],
      "name": "auctionEnded",
      "outputs": [
        {
          "name": "",
          "type": "uint256"
        }
      ],
      "payable": false,
      "stateMutability": "view",
      "type": "function"
    },
    {
      "constant": true,
      "inputs": [],
      "name": "highestBidder",
      "outputs": [
        {
          "name": "",
          "type": "address"
        }
      ],
      "payable": false,
      "stateMutability": "view",
      "type": "function"
    },
    {
      "constant": true,
      "inputs": [
        {
          "name": "",
          "type": "address"
        }
      ],
      "name": "pendingReturn",
      "outputs": [
        {
          "name": "",
          "type": "uint256"
        }
      ],
      "payable": false,
      "stateMutability": "view",
      "type": "function"
    },
    {
      "constant": true,
      "inputs": [],
      "name": "highestBid",
      "outputs": [
        {
          "name": "",
          "type": "uint256"
        }
      ],
      "payable": false,
      "stateMutability": "view",
      "type": "function"
    },
    {
      "inputs": [
        {
          "name": "_beneficiary",
          "type": "address"
        },
        {
          "name": "_auctionEnded",
          "type": "uint256"
        }
      ],
      "payable": false,
      "stateMutability": "nonpayable",
      "type": "constructor"
    },
    {
      "payable": true,
      "stateMutability": "payable",
      "type": "fallback"
    },
    {
      "constant": false,
      "inputs": [],
      "name": "bid",
      "outputs": [],
      "payable": true,
      "stateMutability": "payable",
      "type": "function"
    },
    {
      "constant": false,
      "inputs": [],
      "name": "withdraw",
      "outputs": [
        {
          "name": "",
          "type": "bool"
        }
      ],
      "payable": false,
      "stateMutability": "nonpayable",
      "type": "function"
    },
    {
      "constant": false,
      "inputs": [],
      "name": "auctionEnd",
      "outputs": [],
      "payable": false,
      "stateMutability": "nonpayable",
      "type": "function"
    },
    {
      "constant": true,
      "inputs": [],
      "name": "contract_balance",
      "outputs": [
        {
          "name": "",
          "type": "uint256"
        }
      ],
      "payable": false,
      "stateMutability": "view",
      "type": "function"
    },
    {
      "constant": true,
      "inputs": [
        {
          "name": "_addr",
          "type": "address"
        }
      ],
      "name": "getAddressBId",
      "outputs": [
        {
          "name": "",
          "type": "uint256"
        }
      ],
      "payable": false,
      "stateMutability": "view",
      "type": "function"
    }
  ],
  "bytecode": "0x608060405234801561001057600080fd5b506040516040806108668339810180604052604081101561003057600080fd5b5080516020909101516000805433600160a060020a031991821617825560018054909116600160a060020a0390941693909317909255603c0242016002556107e890819061007e90396000f3fe6080604052600436106100a35763ffffffff7c0100000000000000000000000000000000000000000000000000000000600035041663057440d381146100a55780631998aeef146100cc5780632a24f46c146100d457806338af3eed146100e95780633ccfd60b1461011a578063864333741461014357806391f9015714610158578063b8e295ec1461016d578063c937f9fd146101a0578063d57bde79146101d3575b005b3480156100b157600080fd5b506100ba6101e8565b60408051918252519081900360200190f35b6100a36101ed565b3480156100e057600080fd5b506100a3610424565b3480156100f557600080fd5b506100fe6105ad565b60408051600160a060020a039092168252519081900360200190f35b34801561012657600080fd5b5061012f6105bc565b604080519115158252519081900360200190f35b34801561014f57600080fd5b506100ba610774565b34801561016457600080fd5b506100fe61077a565b34801561017957600080fd5b506100ba6004803603602081101561019057600080fd5b5035600160a060020a0316610789565b3480156101ac57600080fd5b506100ba600480360360208110156101c357600080fd5b5035600160a060020a03166107a4565b3480156101df57600080fd5b506100ba6107b6565b303190565b6002544210610246576040805160e560020a62461bcd02815260206004820152601060248201527f61756374696f6e20456e64656421212100000000000000000000000000000000604482015290519081900360640190fd5b600154600160a060020a03163314156102a9576040805160e560020a62461bcd02815260206004820152601760248201527f62656e6566696369617279202063616e2774206a6f696e000000000000000000604482015290519081900360640190fd5b600054600160a060020a031633141561030c576040805160e560020a62461bcd02815260206004820152601560248201527f746869726450617274792063616e2774206a6f696e0000000000000000000000604482015290519081900360640190fd5b6004543411610365576040805160e560020a62461bcd02815260206004820152601660248201527f6e65656420746f20706179206d6f7265206d6f6e657900000000000000000000604482015290519081900360640190fd5b33600090815260066020526040902054156103b3573360008181526006602052604080822054905181156108fc0292818181858888f193505050501580156103b1573d6000803e3d6000fd5b505b60405130903480156108fc02916000818181858888f193505050501580156103df573d6000803e3d6000fd5b506003805473ffffffffffffffffffffffffffffffffffffffff1916331790819055346004819055600160a060020a0391909116600090815260066020526040902055565b600054600160a060020a03163314610486576040805160e560020a62461bcd02815260206004820152601660248201527f796f7520617265206e6f74207468697264506172747900000000000000000000604482015290519081900360640190fd5b60025442116104df576040805160e560020a62461bcd02815260206004820152601560248201527f61756374696f6e206e6f7420656e646564202121210000000000000000000000604482015290519081900360640190fd5b60055460ff1615610560576040805160e560020a62461bcd02815260206004820152602360248201527f61756374696f6e456e642068617320616c7265616479206265656e2063616c6c60448201527f65642e0000000000000000000000000000000000000000000000000000000000606482015290519081900360840190fd5b6005805460ff1916600190811790915554600454604051600160a060020a039092169181156108fc0291906000818181858888f193505050501580156105aa573d6000803e3d6000fd5b50565b600154600160a060020a031681565b6002546000904211610618576040805160e560020a62461bcd02815260206004820152601560248201527f61756374696f6e206e6f7420656e646564202121210000000000000000000000604482015290519081900360640190fd5b600354600160a060020a03163314156106a1576040805160e560020a62461bcd02815260206004820152602160248201527f686967686573744269646465722063616e74207769746864726177206d6f6e6560448201527f7900000000000000000000000000000000000000000000000000000000000000606482015290519081900360840190fd5b60055460ff161515600114610726576040805160e560020a62461bcd02815260206004820152602260248201527f74686972645061727479206e6f74206465636c6172652061756374696f6e456e60448201527f6420000000000000000000000000000000000000000000000000000000000000606482015290519081900360840190fd5b3360008181526006602052604080822054905181156108fc0292818181858888f1935050505015801561075d573d6000803e3d6000fd5b505033600090815260066020526040812055600190565b60025481565b600354600160a060020a031681565b600160a060020a031660009081526006602052604090205490565b60066020526000908152604090205481565b6004548156fea165627a7a72305820118b30101018706a48363801bdeae67ff74c1e30393b1d6a229f78d2ed80879e0029",
  "source": "pragma solidity 0.5.0 ; \r\n\r\ncontract Auction{\r\n    address thirdParty ; //第三方公正單位\r\n    address payable public  beneficiary; //受益人\r\n    uint public auctionEnded; //拍賣時間\r\n    address public highestBidder; //出價最高者\r\n    uint public highestBid; //最高出價\r\n    bool ended; //拍賣狀態\r\n\r\n    mapping (address => uint) public pendingReturn; //投標者，所投入的金錢\r\n\r\n    //用來設定此次拍賣的受益人及拍賣時間期限\r\n    constructor(address payable _beneficiary , uint _auctionEnded) public {\r\n        thirdParty = msg.sender ;\r\n        beneficiary = _beneficiary;\r\n        auctionEnded =  now + _auctionEnded * 1 minutes ;\r\n    }\r\n    \r\n    \r\n    modifier limiteTime(){\r\n        require(now < auctionEnded , \"auction Ended!!!\");\r\n        _;\r\n    }\r\n    \r\n    modifier onlyOwner(){\r\n        require(thirdParty == msg.sender , \"you are not thirdParty\");\r\n        _;\r\n    }\r\n    \r\n    \r\n    //競標\r\n    function bid() public limiteTime payable {\r\n       require(beneficiary!= msg.sender  , \"beneficiary  can't join\");\r\n       require(thirdParty != msg.sender  , \"thirdParty can't join\");\r\n       require(highestBid < msg.value , \"need to pay more money\");\r\n\r\n        //先退回原本的押金，再重新轉帳新的押金\r\n        if(pendingReturn[msg.sender]!=0){\r\n            \r\n             msg.sender.transfer(pendingReturn[msg.sender]);\r\n        }\r\n        // 等於右上方的value輸入框(可省略)\r\n         address(this).transfer(msg.value); \r\n        \r\n         highestBidder = msg.sender ; \r\n         highestBid = msg.value;\r\n         pendingReturn[highestBidder] = highestBid ;\r\n        \r\n    }\r\n    \r\n    //領回競標金額\r\n    function withdraw() public  returns(bool){\r\n        require(now > auctionEnded ,\"auction not ended !!!\");\r\n        require(highestBidder != msg.sender , \"highestBidder cant withdraw money\");\r\n        require(ended ==true , \"thirdParty not declare auctionEnd \");\r\n        \r\n        \r\n        msg.sender.transfer(pendingReturn[msg.sender]);\r\n        pendingReturn[msg.sender] = 0 ;\r\n        return true ; \r\n        \r\n    }\r\n    \r\n    //結束拍賣\r\n    function auctionEnd() public onlyOwner {\r\n        require(now > auctionEnded ,\"auction not ended !!!\");\r\n        require(!ended, \"auctionEnd has already been called.\");\r\n        ended = true ;\r\n        beneficiary.transfer(highestBid);\r\n    }\r\n    \r\n    \r\n    function contract_balance() public view returns(uint){\r\n        \r\n        return address(this).balance;\r\n    }\r\n    \r\n    function getAddressBId( address _addr) public view returns(uint){\r\n       return pendingReturn[_addr];\r\n    }\r\n    \r\n    \r\n    \r\n    function() external payable{}\r\n    \r\n    \r\n}\r\n\r\n",
  "sourcePath": "c:/Users/user/Desktop/Sharing Economy Carbon Rights Bikecoin/contracts/Auction.sol",
  "compiler": {
    "name": "solc",
    "version": "0.5.0+commit.1d4f565a.Emscripten.clang"
  },
  "schemaVersion": "3.3.1",
  "updatedAt": "2020-11-20T03:52:33.290Z",
  "devdoc": {
    "methods": {}
  },
  "userdoc": {
    "methods": {}
  }
}