{
  "contractName": "vote",
  "abi": [
    {
      "constant": true,
      "inputs": [],
      "name": "chairperson",
      "outputs": [
        {
          "name": "",
          "type": "address"
        }
      ],
      "payable": false,
      "stateMutability": "view",
      "type": "function"
    },
    {
      "constant": true,
      "inputs": [],
      "name": "endTime",
      "outputs": [
        {
          "name": "",
          "type": "uint256"
        }
      ],
      "payable": false,
      "stateMutability": "view",
      "type": "function"
    },
    {
      "constant": true,
      "inputs": [
        {
          "name": "",
          "type": "address"
        }
      ],
      "name": "voters",
      "outputs": [
        {
          "name": "weight",
          "type": "uint256"
        },
        {
          "name": "voted",
          "type": "bool"
        },
        {
          "name": "voteId",
          "type": "uint256"
        }
      ],
      "payable": false,
      "stateMutability": "view",
      "type": "function"
    },
    {
      "constant": true,
      "inputs": [
        {
          "name": "",
          "type": "uint256"
        }
      ],
      "name": "proposalInfo",
      "outputs": [
        {
          "name": "name",
          "type": "string"
        },
        {
          "name": "voteCount",
          "type": "uint256"
        }
      ],
      "payable": false,
      "stateMutability": "view",
      "type": "function"
    },
    {
      "constant": true,
      "inputs": [],
      "name": "state",
      "outputs": [
        {
          "name": "",
          "type": "uint8"
        }
      ],
      "payable": false,
      "stateMutability": "view",
      "type": "function"
    },
    {
      "inputs": [],
      "payable": false,
      "stateMutability": "nonpayable",
      "type": "constructor"
    },
    {
      "constant": false,
      "inputs": [
        {
          "name": "_name",
          "type": "string"
        }
      ],
      "name": "setProposal",
      "outputs": [],
      "payable": false,
      "stateMutability": "nonpayable",
      "type": "function"
    },
    {
      "constant": false,
      "inputs": [
        {
          "name": "_limitTime",
          "type": "uint256"
        }
      ],
      "name": "endProposal",
      "outputs": [
        {
          "name": "",
          "type": "uint8"
        }
      ],
      "payable": false,
      "stateMutability": "nonpayable",
      "type": "function"
    },
    {
      "constant": false,
      "inputs": [
        {
          "name": "_add",
          "type": "address"
        }
      ],
      "name": "authorization",
      "outputs": [],
      "payable": false,
      "stateMutability": "nonpayable",
      "type": "function"
    },
    {
      "constant": false,
      "inputs": [
        {
          "name": "_id",
          "type": "uint256"
        }
      ],
      "name": "voteProposal",
      "outputs": [
        {
          "name": "",
          "type": "bool"
        }
      ],
      "payable": false,
      "stateMutability": "nonpayable",
      "type": "function"
    },
    {
      "constant": false,
      "inputs": [],
      "name": "winningProposal",
      "outputs": [
        {
          "components": [
            {
              "name": "name",
              "type": "string"
            },
            {
              "name": "voteCount",
              "type": "uint256"
            }
          ],
          "name": "",
          "type": "tuple"
        }
      ],
      "payable": false,
      "stateMutability": "nonpayable",
      "type": "function"
    }
  ],
  "bytecode": "0x6080604052600060035534801561001557600080fd5b5060028054600160a060020a031916331790819055600160a060020a0316600090815260046020526040812060019055805460ff19168155610b5390819061005d90396000f3fe6080604052600436106100a35763ffffffff7c01000000000000000000000000000000000000000000000000000000006000350416632e4176cf81146100a85780633197cbb6146100d3578063609ff1bd146100f5578063745fd75114610117578063807896d514610139578063a07bd40014610166578063a3ec138d14610193578063ae092e89146101c2578063c19d93fb146101f0578063cbe1296914610205575b600080fd5b3480156100b457600080fd5b506100bd610225565b6040516100ca9190610986565b60405180910390f35b3480156100df57600080fd5b506100e8610234565b6040516100ca9190610a17565b34801561010157600080fd5b5061010a61023a565b6040516100ca9190610a06565b34801561012357600080fd5b5061013761013236600461080f565b610396565b005b34801561014557600080fd5b50610159610154366004610844565b610445565b6040516100ca919061099a565b34801561017257600080fd5b50610186610181366004610844565b6104e2565b6040516100ca91906109a8565b34801561019f57600080fd5b506101b36101ae3660046107e9565b610569565b6040516100ca93929190610a25565b3480156101ce57600080fd5b506101e26101dd366004610844565b61058d565b6040516100ca9291906109b6565b3480156101fc57600080fd5b50610186610634565b34801561021157600080fd5b506101376102203660046107e9565b61063d565b600254600160a060020a031681565b60015481565b6102426106c6565b60015442111561025a576000805460ff191660021790555b600260005460ff16600281111561026d57fe5b146102965760405160e560020a62461bcd02815260040161028d906109f6565b60405180910390fd5b60008060015b60035481116102de576000818152600560205260409020600101548310156102d65760008181526005602052604090206001015492509050805b60010161029c565b506000818152600560209081526040918290208251815460026001821615610100026000190190911604601f810184900490930281016060908101855293810183815290939192849284919084018282801561037b5780601f106103505761010080835404028352916020019161037b565b820191906000526020600020905b81548152906001019060200180831161035e57829003601f168201915b50505050508152602001600182015481525050925050505b90565b600254600160a060020a031633146103c35760405160e560020a62461bcd02815260040161028d906109e6565b6000805460ff1660028111156103d557fe5b146103f55760405160e560020a62461bcd02815260040161028d906109f6565b604080518082018252828152600060208083018290526003805460010190819055825260058152929020815180519293919261043492849201906106de565b506020820151816001015590505050565b600060015442111561045f576000805460ff191660021790555b600160005460ff16600281111561047257fe5b14801561049257503360009081526004602052604090206001015460ff16155b156104d957503360009081526004602090815260408083206001818101805460ff1916821790556002909101859055848452600590925290912081018054820190556104dd565b5060005b919050565b600254600090600160a060020a031633146105125760405160e560020a62461bcd02815260040161028d906109e6565b6000805460ff16600281111561052457fe5b146105445760405160e560020a62461bcd02815260040161028d906109f6565b600080546001919060ff19168280021790555050603c02420160015560005460ff1690565b600460205260009081526040902080546001820154600290920154909160ff169083565b60056020908152600091825260409182902080548351601f600260001961010060018616150201909316929092049182018490048402810184019094528084529092918391908301828280156106245780601f106105f957610100808354040283529160200191610624565b820191906000526020600020905b81548152906001019060200180831161060757829003601f168201915b5050505050908060010154905082565b60005460ff1681565b600254600160a060020a0316331461066a5760405160e560020a62461bcd02815260040161028d906109e6565b600160a060020a03811660009081526004602052604090206001015460ff16156106a95760405160e560020a62461bcd02815260040161028d906109d6565b600160a060020a0316600090815260046020526040902060019055565b60408051808201909152606081526000602082015290565b828054600181600116156101000203166002900490600052602060002090601f016020900481019282601f1061071f57805160ff191683800117855561074c565b8280016001018555821561074c579182015b8281111561074c578251825591602001919060010190610731565b5061075892915061075c565b5090565b61039391905b808211156107585760008155600101610762565b60006107828235610aa0565b9392505050565b6000601f8201831361079a57600080fd5b81356107ad6107a882610a74565b610a4d565b915080825260208301602083018583830111156107c957600080fd5b6107d4838284610ad3565b50505092915050565b60006107828235610393565b6000602082840312156107fb57600080fd5b60006108078484610776565b949350505050565b60006020828403121561082157600080fd5b813567ffffffffffffffff81111561083857600080fd5b61080784828501610789565b60006020828403121561085657600080fd5b600061080784846107dd565b61086b81610aa0565b82525050565b61086b81610aab565b61086b81610ac8565b600061088e82610a9c565b8084526108a2816020860160208601610adf565b6108ab81610b0f565b9093016020019392505050565b600581527f6572726f72000000000000000000000000000000000000000000000000000000602082015260400190565b601181527f796f7520617265206e6f74206f776e6572000000000000000000000000000000602082015260400190565b600b81527f7374617465206572726f72000000000000000000000000000000000000000000602082015260400190565b80516040808452600091908401906109608282610883565b9150506020830151610975602086018261097d565b509392505050565b61086b81610393565b602081016109948284610862565b92915050565b602081016109948284610871565b60208101610994828461087a565b604080825281016109c78185610883565b9050610782602083018461097d565b60208082528101610994816108b8565b60208082528101610994816108e8565b6020808252810161099481610918565b602080825281016107828184610948565b60208101610994828461097d565b60608101610a33828661097d565b610a406020830185610871565b610807604083018461097d565b60405181810167ffffffffffffffff81118282101715610a6c57600080fd5b604052919050565b600067ffffffffffffffff821115610a8b57600080fd5b506020601f91909101601f19160190565b5190565b600061099482610abc565b151590565b60006003821061075857fe5b600160a060020a031690565b600061099482610ab0565b82818337506000910152565b60005b83811015610afa578181015183820152602001610ae2565b83811115610b09576000848401525b50505050565b601f01601f19169056fea265627a7a72305820ffa42f8f8d067b421de627e706f21038c1fb60191e3aa4ba840084f4dd7bad3f6c6578706572696d656e74616cf50037",
  "source": "pragma solidity 0.5.0 ;\r\npragma experimental ABIEncoderV2;\r\ncontract vote {\r\n    \r\n    enum State {proposal, vote , end} //自訂狀態變數\r\n    \r\n    State public  state ;\r\n\r\n    uint public endTime ; // 紀錄時間\r\n    address public chairperson; // 主席\r\n    uint id = 0 ; // 提案編號\r\n    \r\n    // 投票紀錄\r\n    struct Voter {\r\n        uint weight; //選票\r\n        bool voted; // 是否投票\r\n        uint voteId; // 提案代碼\r\n    } \r\n    \r\n    // 紀錄提案票數\r\n    struct Proposal {\r\n        string name ; // 提案名稱\r\n        uint voteCount; // 提案獲得票數\r\n    }\r\n    \r\n    mapping ( address => Voter) public voters ; \r\n    mapping ( uint => Proposal ) public proposalInfo;\r\n\r\n     modifier onlyOwner(){\r\n        require(chairperson == msg.sender , \"you are not owner\");\r\n        _;\r\n    }\r\n    \r\n    modifier timeEnd(){\r\n        if(now > endTime){\r\n            state = State.end;\r\n        }\r\n        _;\r\n    }\r\n\r\n    constructor() public{\r\n        chairperson = msg.sender;\r\n        voters[chairperson].weight = 1;\r\n        state = State.proposal;\r\n    }\r\n    function setProposal(string memory _name) public onlyOwner {\r\n        require(state == State.proposal , \"state error\" );\r\n        proposalInfo[++id] = Proposal(_name , 0);\r\n    }\r\n\r\n    function endProposal(uint _limitTime) public onlyOwner returns(State){\r\n        require(state == State.proposal ,\"state error\");\r\n        state = State.vote;\r\n        endTime = now + _limitTime * 1 minutes ; \r\n        return state;\r\n    }\r\n    \r\n    function authorization( address _add) public onlyOwner {\r\n        require(voters[_add].voted == false ,\"error\");\r\n        voters[_add].weight = 1;\r\n    }\r\n\r\n    function voteProposal(uint _id) public timeEnd() returns(bool){\r\n        \r\n        if( state == State.vote &&  voters[msg.sender].voted == false){\r\n            voters[msg.sender].voted = true ;\r\n            voters[msg.sender].voteId = _id;\r\n            proposalInfo[_id].voteCount += 1 ;\r\n            return true;\r\n        }\r\n        \r\n        else{\r\n            return false;\r\n        }\r\n        \r\n    }\r\n\r\n\r\n    function winningProposal() timeEnd() public returns(Proposal memory) {\r\n        require(state == State.end , \"state error\");\r\n        uint winningVoteCount = 0 ;\r\n        uint winningProposal ;\r\n       \r\n        for(uint i = 1 ; i<=id ; i++ ){\r\n            if(winningVoteCount < proposalInfo[i].voteCount){\r\n                winningVoteCount = proposalInfo[i].voteCount;\r\n                winningProposal = i ;\r\n            }\r\n            \r\n        }\r\n        return proposalInfo[winningProposal];\r\n    }\r\n\r\n    \r\n}\r\n",
  "sourcePath": "c:/Users/user/Desktop/Sharing Economy Carbon Rights Bikecoin/contracts/vote.sol",
  "compiler": {
    "name": "solc",
    "version": "0.5.0+commit.1d4f565a.Emscripten.clang"
  },
  "schemaVersion": "3.3.1",
  "updatedAt": "2020-11-20T03:52:56.386Z",
  "networkType": "ethereum",
  "devdoc": {
    "methods": {}
  },
  "userdoc": {
    "methods": {}
  }
}